{"abi":[{"type":"constructor","inputs":[{"name":"_creator","type":"address","internalType":"address"},{"name":"_factory","type":"address","internalType":"address"},{"name":"_vrfCoordinator","type":"address","internalType":"address"},{"name":"_subId","type":"uint64","internalType":"uint64"},{"name":"_keyHash","type":"bytes32","internalType":"bytes32"},{"name":"_callbackGasLimit","type":"uint32","internalType":"uint32"},{"name":"_requestConfirmations","type":"uint16","internalType":"uint16"},{"name":"_currency","type":"uint8","internalType":"enum LotteryOpen.Currency"},{"name":"_token","type":"address","internalType":"address"},{"name":"_ticketPrice","type":"uint256","internalType":"uint256"}],"stateMutability":"nonpayable"},{"type":"function","name":"COORDINATOR","inputs":[],"outputs":[{"name":"","type":"address","internalType":"contract VRFCoordinatorV2Interface"}],"stateMutability":"view"},{"type":"function","name":"CURRENCY","inputs":[],"outputs":[{"name":"","type":"uint8","internalType":"enum LotteryOpen.Currency"}],"stateMutability":"view"},{"type":"function","name":"TICKET_PRICE","inputs":[],"outputs":[{"name":"","type":"uint256","internalType":"uint256"}],"stateMutability":"view"},{"type":"function","name":"TOKEN","inputs":[],"outputs":[{"name":"","type":"address","internalType":"address"}],"stateMutability":"view"},{"type":"function","name":"callbackGasLimit","inputs":[],"outputs":[{"name":"","type":"uint32","internalType":"uint32"}],"stateMutability":"view"},{"type":"function","name":"creator","inputs":[],"outputs":[{"name":"","type":"address","internalType":"address"}],"stateMutability":"view"},{"type":"function","name":"enter","inputs":[],"outputs":[],"stateMutability":"payable"},{"type":"function","name":"enterWithToken","inputs":[],"outputs":[],"stateMutability":"nonpayable"},{"type":"function","name":"factory","inputs":[],"outputs":[{"name":"","type":"address","internalType":"address"}],"stateMutability":"view"},{"type":"function","name":"getParticipants","inputs":[],"outputs":[{"name":"","type":"address[]","internalType":"address[]"}],"stateMutability":"view"},{"type":"function","name":"getWinners","inputs":[],"outputs":[{"name":"","type":"address[]","internalType":"address[]"}],"stateMutability":"view"},{"type":"function","name":"keyHash","inputs":[],"outputs":[{"name":"","type":"bytes32","internalType":"bytes32"}],"stateMutability":"view"},{"type":"function","name":"lotteryState","inputs":[],"outputs":[{"name":"","type":"uint8","internalType":"enum ILottery.State"}],"stateMutability":"view"},{"type":"function","name":"owner","inputs":[],"outputs":[{"name":"","type":"address","internalType":"address"}],"stateMutability":"view"},{"type":"function","name":"rawFulfillRandomWords","inputs":[{"name":"requestId","type":"uint256","internalType":"uint256"},{"name":"randomWords","type":"uint256[]","internalType":"uint256[]"}],"outputs":[],"stateMutability":"nonpayable"},{"type":"function","name":"renounceOwnership","inputs":[],"outputs":[],"stateMutability":"nonpayable"},{"type":"function","name":"requestConfirmations","inputs":[],"outputs":[{"name":"","type":"uint16","internalType":"uint16"}],"stateMutability":"view"},{"type":"function","name":"subscriptionId","inputs":[],"outputs":[{"name":"","type":"uint64","internalType":"uint64"}],"stateMutability":"view"},{"type":"function","name":"transferOwnership","inputs":[{"name":"newOwner","type":"address","internalType":"address"}],"outputs":[],"stateMutability":"nonpayable"},{"type":"event","name":"Entered","inputs":[{"name":"user","type":"address","indexed":true,"internalType":"address"},{"name":"amount","type":"uint256","indexed":false,"internalType":"uint256"}],"anonymous":false},{"type":"event","name":"OwnershipTransferred","inputs":[{"name":"previousOwner","type":"address","indexed":true,"internalType":"address"},{"name":"newOwner","type":"address","indexed":true,"internalType":"address"}],"anonymous":false},{"type":"event","name":"ParticipantJoined","inputs":[{"name":"user","type":"address","indexed":true,"internalType":"address"}],"anonymous":false},{"type":"event","name":"WinnersDrawn","inputs":[{"name":"winners","type":"address[]","indexed":false,"internalType":"address[]"}],"anonymous":false},{"type":"error","name":"InvalidInput","inputs":[]},{"type":"error","name":"InvalidRandomness","inputs":[]},{"type":"error","name":"InvalidState","inputs":[]},{"type":"error","name":"OnlyCoordinatorCanFulfill","inputs":[{"name":"have","type":"address","internalType":"address"},{"name":"want","type":"address","internalType":"address"}]},{"type":"error","name":"OwnableInvalidOwner","inputs":[{"name":"owner","type":"address","internalType":"address"}]},{"type":"error","name":"OwnableUnauthorizedAccount","inputs":[{"name":"account","type":"address","internalType":"address"}]},{"type":"error","name":"SafeERC20FailedOperation","inputs":[{"name":"token","type":"address","internalType":"address"}]},{"type":"error","name":"ZeroAddress","inputs":[]}],"bytecode":{"object":"0x61012060405234801562000011575f80fd5b50604051620011b2380380620011b28339810160408190526200003491620002dc565b6001600160a01b038089166080528a908a908a908a908a908a908a90879081166200007857604051631e4fbdf760e01b81525f600482015260240160405180910390fd5b620000838162000250565b506001600160a01b038716620000ac5760405163d92e233d60e01b815260040160405180910390fd5b6001600160a01b038616620000d45760405163d92e233d60e01b815260040160405180910390fd5b6001600160a01b038516620000fc5760405163d92e233d60e01b815260040160405180910390fd5b600180546001600160a01b0319166001600160a01b038981169190911782556002805488831660a0529189166001600160e01b031990921691909117600160a01b6001600160401b0388160217905560038490556004805463ffffffff851665ffffffffffff199091161764010000000061ffff8516021790556007805460ff191682800217905550600196506200019695505050505050565b836001811115620001ab57620001ab620003aa565b148015620001c057506001600160a01b038216155b15620001df5760405163b4fa3fb360e01b815260040160405180910390fd5b805f03620002005760405163b4fa3fb360e01b815260040160405180910390fd5b826001811115620002155762000215620003aa565b60c08160018111156200022c576200022c620003aa565b9052506001600160a01b0390911660e0526101005250620003be9650505050505050565b5f80546001600160a01b038381166001600160a01b0319831681178455604051919092169283917f8be0079c531659141344cd1fd0a4f28419497f9722a3daafe3b4186f6b6457e09190a35050565b80516001600160a01b0381168114620002b6575f80fd5b919050565b805161ffff81168114620002b6575f80fd5b805160028110620002b6575f80fd5b5f805f805f805f805f806101408b8d031215620002f7575f80fd5b620003028b6200029f565b99506200031260208c016200029f565b98506200032260408c016200029f565b60608c01519098506001600160401b03811681146200033f575f80fd5b60808c015160a08d0151919850965063ffffffff8116811462000360575f80fd5b94506200037060c08c01620002bb565b93506200038060e08c01620002cd565b9250620003916101008c016200029f565b91506101208b015190509295989b9194979a5092959850565b634e487b7160e01b5f52602160045260245ffd5b60805160a05160c05160e05161010051610d856200042d5f395f81816101a1015281816104b2015281816104e4015261071f01525f81816102eb015261048e01525f81816103c90152818161043301526106cf01525f61024801525f818161054201526105840152610d855ff3fe608060405260043610610110575f3560e01c80636939864b1161009d578063c45a015511610062578063c45a01551461035e578063df15c37e1461037d578063e97dcb6214610391578063f2fde38b14610399578063f5361219146103b8575f80fd5b80636939864b146102a0578063715018a6146102c657806382bfefc8146102da5780638da5cb5b1461030d578063b0fb162f14610329575f80fd5b80631fe543e3116100e35780631fe543e3146101e757806324f74697146102065780633b2bcbf1146102375780635aa68ac01461026a57806361728f391461028b575f80fd5b806302d05d3f1461011457806309c1ba2e146101505780631a95f15f146101905780631f27e315146101d1575b5f80fd5b34801561011f575f80fd5b50600154610133906001600160a01b031681565b6040516001600160a01b0390911681526020015b60405180910390f35b34801561015b575f80fd5b5060025461017790600160a01b900467ffffffffffffffff1681565b60405167ffffffffffffffff9091168152602001610147565b34801561019b575f80fd5b506101c37f000000000000000000000000000000000000000000000000000000000000000081565b604051908152602001610147565b3480156101dc575f80fd5b506101e56103f8565b005b3480156101f2575f80fd5b506101e5610201366004610b59565b610537565b348015610211575f80fd5b506004546102229063ffffffff1681565b60405163ffffffff9091168152602001610147565b348015610242575f80fd5b506101337f000000000000000000000000000000000000000000000000000000000000000081565b348015610275575f80fd5b5061027e6105c4565b6040516101479190610c1e565b348015610296575f80fd5b506101c360035481565b3480156102ab575f80fd5b506007546102b99060ff1681565b6040516101479190610c7e565b3480156102d1575f80fd5b506101e5610624565b3480156102e5575f80fd5b506101337f000000000000000000000000000000000000000000000000000000000000000081565b348015610318575f80fd5b505f546001600160a01b0316610133565b348015610334575f80fd5b5060045461034b90640100000000900461ffff1681565b60405161ffff9091168152602001610147565b348015610369575f80fd5b50600254610133906001600160a01b031681565b348015610388575f80fd5b5061027e610637565b6101e5610695565b3480156103a4575f80fd5b506101e56103b3366004610c98565b610798565b3480156103c3575f80fd5b506103eb7f000000000000000000000000000000000000000000000000000000000000000081565b6040516101479190610cc5565b600160075460ff16600581111561041157610411610c6a565b1461042f5760405163baf3f0f760e01b815260040160405180910390fd5b60017f0000000000000000000000000000000000000000000000000000000000000000600181111561046357610463610c6a565b146104815760405163b4fa3fb360e01b815260040160405180910390fd5b6104d66001600160a01b037f00000000000000000000000000000000000000000000000000000000000000001633307f00000000000000000000000000000000000000000000000000000000000000006107d5565b6104df33610811565b6040517f0000000000000000000000000000000000000000000000000000000000000000815233907fdb4b459b9af0810582f21ec0ec043ee9c3f91ea26a3d3a675dea0e9e5e099f05906020015b60405180910390a2565b336001600160a01b037f000000000000000000000000000000000000000000000000000000000000000016146105b65760405163073e64fd60e21b81523360048201526001600160a01b037f00000000000000000000000000000000000000000000000000000000000000001660248201526044015b60405180910390fd5b6105c08282610888565b5050565b6060600580548060200260200160405190810160405280929190818152602001828054801561061a57602002820191905f5260205f20905b81546001600160a01b031681526001909101906020018083116105fc575b5050505050905090565b61062c610930565b6106355f61095c565b565b6060600680548060200260200160405190810160405280929190818152602001828054801561061a57602002820191905f5260205f209081546001600160a01b031681526001909101906020018083116105fc575050505050905090565b600160075460ff1660058111156106ae576106ae610c6a565b146106cc5760405163baf3f0f760e01b815260040160405180910390fd5b5f7f000000000000000000000000000000000000000000000000000000000000000060018111156106ff576106ff610c6a565b1461071d5760405163b4fa3fb360e01b815260040160405180910390fd5b7f0000000000000000000000000000000000000000000000000000000000000000341461075d5760405163b4fa3fb360e01b815260040160405180910390fd5b61076633610811565b60405134815233907fdb4b459b9af0810582f21ec0ec043ee9c3f91ea26a3d3a675dea0e9e5e099f059060200161052d565b6107a0610930565b6001600160a01b0381166107c957604051631e4fbdf760e01b81525f60048201526024016105ad565b6107d28161095c565b50565b6107e38484848460016109ab565b61080b57604051635274afe760e01b81526001600160a01b03851660048201526024016105ad565b50505050565b600580546001810182555f9182527f036b6384b5eca791c62761152d0c79bb0604c104a5fb6f4eb0703f3154bb3db00180546001600160a01b0319166001600160a01b03841690811790915560405190917f6cd71e167cab47cb2ccb763aada102691b585b848adb6395f1da4ac187b9214a91a250565b600360075460ff1660058111156108a1576108a1610c6a565b146108c257604051600162f485e960e01b0319815260040160405180910390fd5b6108e66001825f815181106108d9576108d9610cd9565b6020026020010151610a18565b6007805460ff191660041790556040517f01e26fd9468170c075e6afc90d001d0e84ba9f84a6816461d03d2a4e7f6aa7de9061092490600690610ced565b60405180910390a15050565b5f546001600160a01b031633146106355760405163118cdaa760e01b81523360048201526024016105ad565b5f80546001600160a01b038381166001600160a01b0319831681178455604051919092169283917f8be0079c531659141344cd1fd0a4f28419497f9722a3daafe3b4186f6b6457e09190a35050565b6040516323b872dd60e01b5f8181526001600160a01b038781166004528616602452604485905291602083606481808c5af1925060015f51148316610a075783831516156109fb573d5f823e3d81fd5b5f883b113d1516831692505b604052505f60605295945050505050565b600554821115610a6a5760405162461bcd60e51b815260206004820152601760248201527f4e6f7420656e6f756768207061727469636970616e747300000000000000000060448201526064016105ad565b610a7560065f610b17565b5f5b82811015610b1257600554604080516020808201869052818301859052825180830384018152606090920190925280519101205f91610ab591610d30565b9050600660058281548110610acc57610acc610cd9565b5f918252602080832090910154835460018181018655948452919092200180546001600160a01b0319166001600160a01b03909216919091179055919091019050610a77565b505050565b5080545f8255905f5260205f20908101906107d291905b80821115610b41575f8155600101610b2e565b5090565b634e487b7160e01b5f52604160045260245ffd5b5f8060408385031215610b6a575f80fd5b8235915060208084013567ffffffffffffffff80821115610b89575f80fd5b818601915086601f830112610b9c575f80fd5b813581811115610bae57610bae610b45565b8060051b604051601f19603f83011681018181108582111715610bd357610bd3610b45565b604052918252848201925083810185019189831115610bf0575f80fd5b938501935b82851015610c0e57843584529385019392850192610bf5565b8096505050505050509250929050565b602080825282518282018190525f9190848201906040850190845b81811015610c5e5783516001600160a01b031683529284019291840191600101610c39565b50909695505050505050565b634e487b7160e01b5f52602160045260245ffd5b6020810160068310610c9257610c92610c6a565b91905290565b5f60208284031215610ca8575f80fd5b81356001600160a01b0381168114610cbe575f80fd5b9392505050565b6020810160028310610c9257610c92610c6a565b634e487b7160e01b5f52603260045260245ffd5b602080825282548282018190525f8481528281209092916040850190845b81811015610c5e5783546001600160a01b031683526001938401939285019201610d0b565b5f82610d4a57634e487b7160e01b5f52601260045260245ffd5b50069056fea26469706673582212208adab978b3a93f11984851db11af2c63bb182d0977839627edc02127eedc611764736f6c63430008180033","linkReferences":{}},"methodIdentifiers":{"COORDINATOR()":"3b2bcbf1","CURRENCY()":"f5361219","TICKET_PRICE()":"1a95f15f","TOKEN()":"82bfefc8","callbackGasLimit()":"24f74697","creator()":"02d05d3f","enter()":"e97dcb62","enterWithToken()":"1f27e315","factory()":"c45a0155","getParticipants()":"5aa68ac0","getWinners()":"df15c37e","keyHash()":"61728f39","lotteryState()":"6939864b","owner()":"8da5cb5b","rawFulfillRandomWords(uint256,uint256[])":"1fe543e3","renounceOwnership()":"715018a6","requestConfirmations()":"b0fb162f","subscriptionId()":"09c1ba2e","transferOwnership(address)":"f2fde38b"},"id":31}