{"abi":[{"type":"constructor","inputs":[{"name":"_creator","type":"address","internalType":"address"},{"name":"_factory","type":"address","internalType":"address"},{"name":"_vrfCoordinator","type":"address","internalType":"address"},{"name":"_subId","type":"uint64","internalType":"uint64"},{"name":"_keyHash","type":"bytes32","internalType":"bytes32"},{"name":"_callbackGasLimit","type":"uint32","internalType":"uint32"},{"name":"_requestConfirmations","type":"uint16","internalType":"uint16"},{"name":"initialParticipants","type":"address[]","internalType":"address[]"},{"name":"_ipfsCid","type":"string","internalType":"string"}],"stateMutability":"nonpayable"},{"type":"function","name":"COORDINATOR","inputs":[],"outputs":[{"name":"","type":"address","internalType":"contract VRFCoordinatorV2Interface"}],"stateMutability":"view"},{"type":"function","name":"addParticipantsBatch","inputs":[{"name":"addrs","type":"address[]","internalType":"address[]"}],"outputs":[],"stateMutability":"nonpayable"},{"type":"function","name":"callbackGasLimit","inputs":[],"outputs":[{"name":"","type":"uint32","internalType":"uint32"}],"stateMutability":"view"},{"type":"function","name":"creator","inputs":[],"outputs":[{"name":"","type":"address","internalType":"address"}],"stateMutability":"view"},{"type":"function","name":"factory","inputs":[],"outputs":[{"name":"","type":"address","internalType":"address"}],"stateMutability":"view"},{"type":"function","name":"getParticipants","inputs":[],"outputs":[{"name":"","type":"address[]","internalType":"address[]"}],"stateMutability":"view"},{"type":"function","name":"getWinners","inputs":[],"outputs":[{"name":"","type":"address[]","internalType":"address[]"}],"stateMutability":"view"},{"type":"function","name":"ipfsCid","inputs":[],"outputs":[{"name":"","type":"string","internalType":"string"}],"stateMutability":"view"},{"type":"function","name":"keyHash","inputs":[],"outputs":[{"name":"","type":"bytes32","internalType":"bytes32"}],"stateMutability":"view"},{"type":"function","name":"lotteryState","inputs":[],"outputs":[{"name":"","type":"uint8","internalType":"enum ILottery.State"}],"stateMutability":"view"},{"type":"function","name":"owner","inputs":[],"outputs":[{"name":"","type":"address","internalType":"address"}],"stateMutability":"view"},{"type":"function","name":"rawFulfillRandomWords","inputs":[{"name":"requestId","type":"uint256","internalType":"uint256"},{"name":"randomWords","type":"uint256[]","internalType":"uint256[]"}],"outputs":[],"stateMutability":"nonpayable"},{"type":"function","name":"renounceOwnership","inputs":[],"outputs":[],"stateMutability":"nonpayable"},{"type":"function","name":"requestConfirmations","inputs":[],"outputs":[{"name":"","type":"uint16","internalType":"uint16"}],"stateMutability":"view"},{"type":"function","name":"subscriptionId","inputs":[],"outputs":[{"name":"","type":"uint64","internalType":"uint64"}],"stateMutability":"view"},{"type":"function","name":"transferOwnership","inputs":[{"name":"newOwner","type":"address","internalType":"address"}],"outputs":[],"stateMutability":"nonpayable"},{"type":"event","name":"OwnershipTransferred","inputs":[{"name":"previousOwner","type":"address","indexed":true,"internalType":"address"},{"name":"newOwner","type":"address","indexed":true,"internalType":"address"}],"anonymous":false},{"type":"event","name":"ParticipantJoined","inputs":[{"name":"user","type":"address","indexed":true,"internalType":"address"}],"anonymous":false},{"type":"event","name":"WinnersDrawn","inputs":[{"name":"winners","type":"address[]","indexed":false,"internalType":"address[]"}],"anonymous":false},{"type":"error","name":"InvalidInput","inputs":[]},{"type":"error","name":"InvalidRandomness","inputs":[]},{"type":"error","name":"InvalidState","inputs":[]},{"type":"error","name":"NotCreator","inputs":[]},{"type":"error","name":"OnlyCoordinatorCanFulfill","inputs":[{"name":"have","type":"address","internalType":"address"},{"name":"want","type":"address","internalType":"address"}]},{"type":"error","name":"OwnableInvalidOwner","inputs":[{"name":"owner","type":"address","internalType":"address"}]},{"type":"error","name":"OwnableUnauthorizedAccount","inputs":[{"name":"account","type":"address","internalType":"address"}]},{"type":"error","name":"ZeroAddress","inputs":[]}],"bytecode":{"object":"0x60c060405234801562000010575f80fd5b50604051620012523803806200125283398101604081905262000033916200047e565b6001600160a01b038088166080528990899089908990899089908990879081166200007757604051631e4fbdf760e01b81525f600482015260240160405180910390fd5b620000828162000219565b506001600160a01b038716620000ab5760405163d92e233d60e01b815260040160405180910390fd5b6001600160a01b038616620000d35760405163d92e233d60e01b815260040160405180910390fd5b6001600160a01b038516620000fb5760405163d92e233d60e01b815260040160405180910390fd5b600180546001600160a01b0319166001600160a01b038981169190911782556002805488831660a0529189166001600160e01b031990921691909117600160a01b6001600160401b0388160217905560038490556004805463ffffffff851665ffffffffffff199091161764010000000061ffff8516021790556007805460ff1916828002179055505050505050505081515f03620001ad5760405163b4fa3fb360e01b815260040160405180910390fd5b5f5b8251811015620001ef57620001e6838281518110620001d257620001d262000563565b60200260200101516200026860201b60201c565b600101620001af565b506008620001fe828262000601565b50506007805460ff1916905550620006cd9650505050505050565b5f80546001600160a01b038381166001600160a01b0319831681178455604051919092169283917f8be0079c531659141344cd1fd0a4f28419497f9722a3daafe3b4186f6b6457e09190a35050565b600580546001810182555f9182527f036b6384b5eca791c62761152d0c79bb0604c104a5fb6f4eb0703f3154bb3db00180546001600160a01b0319166001600160a01b03841690811790915560405190917f6cd71e167cab47cb2ccb763aada102691b585b848adb6395f1da4ac187b9214a91a250565b80516001600160a01b0381168114620002f6575f80fd5b919050565b805163ffffffff81168114620002f6575f80fd5b805161ffff81168114620002f6575f80fd5b634e487b7160e01b5f52604160045260245ffd5b604051601f8201601f191681016001600160401b038111828210171562000360576200036062000321565b604052919050565b5f82601f83011262000378575f80fd5b815160206001600160401b0382111562000396576200039662000321565b8160051b620003a782820162000335565b9283528481018201928281019087851115620003c1575f80fd5b83870192505b84831015620003eb57620003db83620002df565b82529183019190830190620003c7565b979650505050505050565b5f82601f83011262000406575f80fd5b81516001600160401b0381111562000422576200042262000321565b602062000438601f8301601f1916820162000335565b82815285828487010111156200044c575f80fd5b5f5b838110156200046b5785810183015182820184015282016200044e565b505f928101909101919091529392505050565b5f805f805f805f805f6101208a8c03121562000498575f80fd5b620004a38a620002df565b9850620004b360208b01620002df565b9750620004c360408b01620002df565b60608b01519097506001600160401b038082168214620004e1575f80fd5b81975060808c01519650620004f960a08d01620002fb565b95506200050960c08d016200030f565b945060e08c01519150808211156200051f575f80fd5b6200052d8d838e0162000368565b93506101008c015191508082111562000544575f80fd5b50620005538c828d01620003f6565b9150509295985092959850929598565b634e487b7160e01b5f52603260045260245ffd5b600181811c908216806200058c57607f821691505b602082108103620005ab57634e487b7160e01b5f52602260045260245ffd5b50919050565b601f821115620005fc57805f5260205f20601f840160051c81016020851015620005d85750805b601f840160051c820191505b81811015620005f9575f8155600101620005e4565b50505b505050565b81516001600160401b038111156200061d576200061d62000321565b62000635816200062e845462000577565b84620005b1565b602080601f8311600181146200066b575f8415620006535750858301515b5f19600386901b1c1916600185901b178555620006c5565b5f85815260208120601f198616915b828110156200069b578886015182559484019460019091019084016200067a565b5085821015620006b957878501515f19600388901b60f8161c191681555b505060018460011b0185555b505050505050565b60805160a051610b5c620006f65f395f6101b501525f81816102ac01526102ee0152610b5c5ff3fe608060405234801561000f575f80fd5b50600436106100fb575f3560e01c80636939864b11610093578063b0fb162f11610063578063b0fb162f1461024a578063c45a015514610273578063df15c37e14610286578063f2fde38b1461028e575f80fd5b80636939864b14610203578063715018a61461021d5780637b914674146102255780638da5cb5b1461023a575f80fd5b80632dbb300e116100ce5780632dbb300e1461019d5780633b2bcbf1146101b05780635aa68ac0146101d757806361728f39146101ec575f80fd5b806302d05d3f146100ff57806309c1ba2e1461012f5780631fe543e31461016357806324f7469714610178575b5f80fd5b600154610112906001600160a01b031681565b6040516001600160a01b0390911681526020015b60405180910390f35b60025461014a90600160a01b900467ffffffffffffffff1681565b60405167ffffffffffffffff9091168152602001610126565b610176610171366004610845565b6102a1565b005b6004546101889063ffffffff1681565b60405163ffffffff9091168152602001610126565b6101766101ab36600461090a565b61032e565b6101127f000000000000000000000000000000000000000000000000000000000000000081565b6101df6103d5565b6040516101269190610979565b6101f560035481565b604051908152602001610126565b6007546102109060ff1681565b60405161012691906109d9565b610176610435565b61022d610448565b60405161012691906109ff565b5f546001600160a01b0316610112565b60045461026090640100000000900461ffff1681565b60405161ffff9091168152602001610126565b600254610112906001600160a01b031681565b6101df6104d4565b61017661029c366004610a4b565b610532565b336001600160a01b037f000000000000000000000000000000000000000000000000000000000000000016146103205760405163073e64fd60e21b81523360048201526001600160a01b037f00000000000000000000000000000000000000000000000000000000000000001660248201526044015b60405180910390fd5b61032a828261056f565b5050565b6001546001600160a01b03163314610359576040516393687c0b60e01b815260040160405180910390fd5b5f60075460ff166005811115610371576103716109c5565b1461038f5760405163baf3f0f760e01b815260040160405180910390fd5b5f5b818110156103d0576103c88383838181106103ae576103ae610a78565b90506020020160208101906103c39190610a4b565b610617565b600101610391565b505050565b6060600580548060200260200160405190810160405280929190818152602001828054801561042b57602002820191905f5260205f20905b81546001600160a01b0316815260019091019060200180831161040d575b5050505050905090565b61043d61068e565b6104465f6106ba565b565b6008805461045590610a8c565b80601f016020809104026020016040519081016040528092919081815260200182805461048190610a8c565b80156104cc5780601f106104a3576101008083540402835291602001916104cc565b820191905f5260205f20905b8154815290600101906020018083116104af57829003601f168201915b505050505081565b6060600680548060200260200160405190810160405280929190818152602001828054801561042b57602002820191905f5260205f209081546001600160a01b0316815260019091019060200180831161040d575050505050905090565b61053a61068e565b6001600160a01b03811661056357604051631e4fbdf760e01b81525f6004820152602401610317565b61056c816106ba565b50565b600360075460ff166005811115610588576105886109c5565b146105a957604051600162f485e960e01b0319815260040160405180910390fd5b6105cd6001825f815181106105c0576105c0610a78565b6020026020010151610709565b6007805460ff191660041790556040517f01e26fd9468170c075e6afc90d001d0e84ba9f84a6816461d03d2a4e7f6aa7de9061060b90600690610ac4565b60405180910390a15050565b600580546001810182555f9182527f036b6384b5eca791c62761152d0c79bb0604c104a5fb6f4eb0703f3154bb3db00180546001600160a01b0319166001600160a01b03841690811790915560405190917f6cd71e167cab47cb2ccb763aada102691b585b848adb6395f1da4ac187b9214a91a250565b5f546001600160a01b031633146104465760405163118cdaa760e01b8152336004820152602401610317565b5f80546001600160a01b038381166001600160a01b0319831681178455604051919092169283917f8be0079c531659141344cd1fd0a4f28419497f9722a3daafe3b4186f6b6457e09190a35050565b60055482111561075b5760405162461bcd60e51b815260206004820152601760248201527f4e6f7420656e6f756768207061727469636970616e74730000000000000000006044820152606401610317565b61076660065f610803565b5f5b828110156103d057600554604080516020808201869052818301859052825180830384018152606090920190925280519101205f916107a691610b07565b90506006600582815481106107bd576107bd610a78565b5f918252602080832090910154835460018181018655948452919092200180546001600160a01b0319166001600160a01b03909216919091179055919091019050610768565b5080545f8255905f5260205f209081019061056c91905b8082111561082d575f815560010161081a565b5090565b634e487b7160e01b5f52604160045260245ffd5b5f8060408385031215610856575f80fd5b8235915060208084013567ffffffffffffffff80821115610875575f80fd5b818601915086601f830112610888575f80fd5b81358181111561089a5761089a610831565b8060051b604051601f19603f830116810181811085821117156108bf576108bf610831565b6040529182528482019250838101850191898311156108dc575f80fd5b938501935b828510156108fa578435845293850193928501926108e1565b8096505050505050509250929050565b5f806020838503121561091b575f80fd5b823567ffffffffffffffff80821115610932575f80fd5b818501915085601f830112610945575f80fd5b813581811115610953575f80fd5b8660208260051b8501011115610967575f80fd5b60209290920196919550909350505050565b602080825282518282018190525f9190848201906040850190845b818110156109b95783516001600160a01b031683529284019291840191600101610994565b50909695505050505050565b634e487b7160e01b5f52602160045260245ffd5b60208101600683106109f957634e487b7160e01b5f52602160045260245ffd5b91905290565b5f602080835283518060208501525f5b81811015610a2b57858101830151858201604001528201610a0f565b505f604082860101526040601f19601f8301168501019250505092915050565b5f60208284031215610a5b575f80fd5b81356001600160a01b0381168114610a71575f80fd5b9392505050565b634e487b7160e01b5f52603260045260245ffd5b600181811c90821680610aa057607f821691505b602082108103610abe57634e487b7160e01b5f52602260045260245ffd5b50919050565b602080825282548282018190525f8481528281209092916040850190845b818110156109b95783546001600160a01b031683526001938401939285019201610ae2565b5f82610b2157634e487b7160e01b5f52601260045260245ffd5b50069056fea2646970667358221220e6ee0cf10ea1434a095f6a3878fa08a7ecd8f35207dedcc7dadab7f901b6e96264736f6c63430008180033","linkReferences":{}},"methodIdentifiers":{"COORDINATOR()":"3b2bcbf1","addParticipantsBatch(address[])":"2dbb300e","callbackGasLimit()":"24f74697","creator()":"02d05d3f","factory()":"c45a0155","getParticipants()":"5aa68ac0","getWinners()":"df15c37e","ipfsCid()":"7b914674","keyHash()":"61728f39","lotteryState()":"6939864b","owner()":"8da5cb5b","rawFulfillRandomWords(uint256,uint256[])":"1fe543e3","renounceOwnership()":"715018a6","requestConfirmations()":"b0fb162f","subscriptionId()":"09c1ba2e","transferOwnership(address)":"f2fde38b"},"id":30}