{"abi":[{"type":"constructor","inputs":[{"name":"_owner","type":"address","internalType":"address"},{"name":"_vrfCoordinator","type":"address","internalType":"address"},{"name":"_keyHash","type":"bytes32","internalType":"bytes32"},{"name":"_subscriptionId","type":"uint64","internalType":"uint64"},{"name":"_minConfirmations","type":"uint16","internalType":"uint16"},{"name":"_callbackGasLimit","type":"uint32","internalType":"uint32"}],"stateMutability":"nonpayable"},{"type":"function","name":"COORDINATOR","inputs":[],"outputs":[{"name":"","type":"address","internalType":"contract VRFCoordinatorV2Interface"}],"stateMutability":"view"},{"type":"function","name":"allLotteries","inputs":[{"name":"","type":"uint256","internalType":"uint256"}],"outputs":[{"name":"","type":"address","internalType":"address"}],"stateMutability":"view"},{"type":"function","name":"callbackGasLimit","inputs":[],"outputs":[{"name":"","type":"uint32","internalType":"uint32"}],"stateMutability":"view"},{"type":"function","name":"createLotteryOpen","inputs":[{"name":"currency","type":"uint8","internalType":"enum LotteryOpen.Currency"},{"name":"token","type":"address","internalType":"address"},{"name":"ticketPrice","type":"uint256","internalType":"uint256"}],"outputs":[{"name":"lot","type":"address","internalType":"address"}],"stateMutability":"nonpayable"},{"type":"function","name":"getAllLotteries","inputs":[],"outputs":[{"name":"","type":"address[]","internalType":"address[]"}],"stateMutability":"view"},{"type":"function","name":"isLottery","inputs":[{"name":"","type":"address","internalType":"address"}],"outputs":[{"name":"","type":"bool","internalType":"bool"}],"stateMutability":"view"},{"type":"function","name":"keyHash","inputs":[],"outputs":[{"name":"","type":"bytes32","internalType":"bytes32"}],"stateMutability":"view"},{"type":"function","name":"minConfirmations","inputs":[],"outputs":[{"name":"","type":"uint16","internalType":"uint16"}],"stateMutability":"view"},{"type":"function","name":"owner","inputs":[],"outputs":[{"name":"","type":"address","internalType":"address"}],"stateMutability":"view"},{"type":"function","name":"rawFulfillRandomWords","inputs":[{"name":"requestId","type":"uint256","internalType":"uint256"},{"name":"randomWords","type":"uint256[]","internalType":"uint256[]"}],"outputs":[],"stateMutability":"nonpayable"},{"type":"function","name":"renounceOwnership","inputs":[],"outputs":[],"stateMutability":"nonpayable"},{"type":"function","name":"requestRandomness","inputs":[{"name":"lottery","type":"address","internalType":"address"},{"name":"numWords","type":"uint32","internalType":"uint32"}],"outputs":[{"name":"requestId","type":"uint256","internalType":"uint256"}],"stateMutability":"nonpayable"},{"type":"function","name":"requestToLottery","inputs":[{"name":"","type":"uint256","internalType":"uint256"}],"outputs":[{"name":"","type":"address","internalType":"address"}],"stateMutability":"view"},{"type":"function","name":"subscriptionId","inputs":[],"outputs":[{"name":"","type":"uint64","internalType":"uint64"}],"stateMutability":"view"},{"type":"function","name":"transferOwnership","inputs":[{"name":"newOwner","type":"address","internalType":"address"}],"outputs":[],"stateMutability":"nonpayable"},{"type":"event","name":"LotteryCreated","inputs":[{"name":"creator","type":"address","indexed":true,"internalType":"address"},{"name":"lottery","type":"address","indexed":true,"internalType":"address"}],"anonymous":false},{"type":"event","name":"OwnershipTransferred","inputs":[{"name":"previousOwner","type":"address","indexed":true,"internalType":"address"},{"name":"newOwner","type":"address","indexed":true,"internalType":"address"}],"anonymous":false},{"type":"event","name":"RandomRequested","inputs":[{"name":"requestId","type":"uint256","indexed":true,"internalType":"uint256"},{"name":"lottery","type":"address","indexed":true,"internalType":"address"}],"anonymous":false},{"type":"error","name":"OnlyCoordinatorCanFulfill","inputs":[{"name":"have","type":"address","internalType":"address"},{"name":"want","type":"address","internalType":"address"}]},{"type":"error","name":"OwnableInvalidOwner","inputs":[{"name":"owner","type":"address","internalType":"address"}]},{"type":"error","name":"OwnableUnauthorizedAccount","inputs":[{"name":"account","type":"address","internalType":"address"}]}],"bytecode":{"object":"0x60c060405234801561000f575f80fd5b5060405161202038038061202083398101604081905261002e9161014a565b6001600160a01b038086166080528690811661006357604051631e4fbdf760e01b81525f600482015260240160405180910390fd5b61006c816100e0565b506001600160a01b0390941660a0526001929092556002805463ffffffff9094166a01000000000000000000000263ffffffff60501b1961ffff90941668010000000000000000026001600160501b03199095166001600160401b03909316929092179390931791909116179055506101d7565b5f80546001600160a01b038381166001600160a01b0319831681178455604051919092169283917f8be0079c531659141344cd1fd0a4f28419497f9722a3daafe3b4186f6b6457e09190a35050565b80516001600160a01b0381168114610145575f80fd5b919050565b5f805f805f8060c0878903121561015f575f80fd5b6101688761012f565b95506101766020880161012f565b6040880151606089015191965094506001600160401b0381168114610199575f80fd5b608088015190935061ffff811681146101b0575f80fd5b60a088015190925063ffffffff811681146101c9575f80fd5b809150509295509295509295565b60805160a051611e1361020d5f395f81816101e301528181610308015261058c01525f818161043001526104730152611e135ff3fe608060405234801562000010575f80fd5b506004361062000104575f3560e01c80634b75abbb116200009f578063a5773a47116200006b578063a5773a471462000267578063be3454531462000280578063e7c4393e14620002b6578063f2fde38b14620002e0575f80fd5b80634b75abbb146200021c57806361728f391462000242578063715018a6146200024c5780638da5cb5b1462000256575f80fd5b80631fe543e311620000df5780631fe543e3146200019657806324f7469714620001af5780633b2bcbf114620001dd57806343531c611462000205575f80fd5b806309c1ba2e146200010857806315c6e123146200013b5780631bbb43fe146200017f575b5f80fd5b6002546200011d9067ffffffffffffffff1681565b60405167ffffffffffffffff90911681526020015b60405180910390f35b620001666200014c366004620008ea565b60036020525f90815260409020546001600160a01b031681565b6040516001600160a01b03909116815260200162000132565b62000166620001903660046200091e565b620002f7565b620001ad620001a736600462000974565b62000425565b005b600254620001c790600160501b900463ffffffff1681565b60405163ffffffff909116815260200162000132565b620001667f000000000000000000000000000000000000000000000000000000000000000081565b6200016662000216366004620008ea565b620004b5565b620002336200022d36600462000a45565b620004de565b60405190815260200162000132565b6200023360015481565b620001ad6200065c565b5f546001600160a01b031662000166565b6200027162000673565b60405162000132919062000a86565b620002a56200029136600462000ad4565b60056020525f908152604090205460ff1681565b604051901515815260200162000132565b600254620002cc90600160401b900461ffff1681565b60405161ffff909116815260200162000132565b620001ad620002f136600462000ad4565b620006d5565b6002546001546040515f92339230927f00000000000000000000000000000000000000000000000000000000000000009267ffffffffffffffff81169291600160501b820463ffffffff1691600160401b900461ffff16908b908b908b906200036090620008dc565b620003759a9998979695949392919062000af7565b604051809103905ff0801580156200038f573d5f803e3d5ffd5b506001600160a01b0381165f81815260056020526040808220805460ff1916600190811790915560048054918201815583527f8a35acfbc15ff81a39ae7d344fd709f28e8600b4aa8c65c6b64bfe7fe36bd19b0180546001600160a01b0319168417905551929350909133917fdf7be3921ea9458ecd0a6ec88b3302d30dc01060774cae1a5b3fa2a2ffe1a46b91a39392505050565b336001600160a01b037f00000000000000000000000000000000000000000000000000000000000000001614620004a55760405163073e64fd60e21b81523360048201526001600160a01b037f00000000000000000000000000000000000000000000000000000000000000001660248201526044015b60405180910390fd5b620004b1828262000718565b5050565b60048181548110620004c5575f80fd5b5f918252602090912001546001600160a01b0316905081565b6001600160a01b0382165f9081526005602052604081205460ff16620005345760405162461bcd60e51b815260206004820152600a6024820152694e6f744c6f747465727960b01b60448201526064016200049c565b6001546002546040516305d3b1d360e41b8152600481019290925267ffffffffffffffff81166024830152600160401b810461ffff166044830152600160501b900463ffffffff9081166064830152831660848201527f00000000000000000000000000000000000000000000000000000000000000006001600160a01b031690635d3b1d309060a4016020604051808303815f875af1158015620005db573d5f803e3d5ffd5b505050506040513d601f19601f8201168201806040525081019062000601919062000b95565b5f8181526003602052604080822080546001600160a01b0319166001600160a01b03881690811790915590519293509183917fcd4a2eb17c38ad25b7c647235e9d74821d3613b50c9ec8907609b5728bc674b091a392915050565b620006666200085f565b620006715f6200088d565b565b60606004805480602002602001604051908101604052809291908181526020018280548015620006cb57602002820191905f5260205f20905b81546001600160a01b03168152600190910190602001808311620006ac575b5050505050905090565b620006df6200085f565b6001600160a01b0381166200070a57604051631e4fbdf760e01b81525f60048201526024016200049c565b62000715816200088d565b50565b5f828152600360209081526040808320546001600160a01b031680845260059092529091205460ff166200077d5760405162461bcd60e51b815260206004820152600b60248201526a556e6b6e6f776e2072657160a81b60448201526064016200049c565b5f816001600160a01b031684846040516024016200079d92919062000bad565b60408051601f198184030181529181526020820180516001600160e01b0316630e2e918560e21b17905251620007d4919062000bfd565b5f604051808303815f865af19150503d805f81146200080f576040519150601f19603f3d011682016040523d82523d5f602084013e62000814565b606091505b5050905080620008595760405162461bcd60e51b815260206004820152600f60248201526e10d85b1b189858dac819985a5b1959608a1b60448201526064016200049c565b50505050565b5f546001600160a01b03163314620006715760405163118cdaa760e01b81523360048201526024016200049c565b5f80546001600160a01b038381166001600160a01b0319831681178455604051919092169283917f8be0079c531659141344cd1fd0a4f28419497f9722a3daafe3b4186f6b6457e09190a35050565b6111b28062000c2c83390190565b5f60208284031215620008fb575f80fd5b5035919050565b80356001600160a01b038116811462000919575f80fd5b919050565b5f805f6060848603121562000931575f80fd5b83356002811062000940575f80fd5b9250620009506020850162000902565b9150604084013590509250925092565b634e487b7160e01b5f52604160045260245ffd5b5f806040838503121562000986575f80fd5b8235915060208084013567ffffffffffffffff80821115620009a6575f80fd5b818601915086601f830112620009ba575f80fd5b813581811115620009cf57620009cf62000960565b8060051b604051601f19603f83011681018181108582111715620009f757620009f762000960565b60405291825284820192508381018501918983111562000a15575f80fd5b938501935b8285101562000a355784358452938501939285019262000a1a565b8096505050505050509250929050565b5f806040838503121562000a57575f80fd5b62000a628362000902565b9150602083013563ffffffff8116811462000a7b575f80fd5b809150509250929050565b602080825282518282018190525f9190848201906040850190845b8181101562000ac85783516001600160a01b03168352928401929184019160010162000aa1565b50909695505050505050565b5f6020828403121562000ae5575f80fd5b62000af08262000902565b9392505050565b6001600160a01b038b811682528a811660208301528916604082015267ffffffffffffffff881660608201526080810187905263ffffffff861660a082015261ffff851660c082015261014081016002851062000b6257634e487b7160e01b5f52602160045260245ffd5b8460e083015262000b7f6101008301856001600160a01b03169052565b826101208301529b9a5050505050505050505050565b5f6020828403121562000ba6575f80fd5b5051919050565b5f604082018483526020604060208501528185518084526060860191506020870193505f5b8181101562000bf05784518352938301939183019160010162000bd2565b5090979650505050505050565b5f82515f5b8181101562000c1e576020818601810151858301520162000c02565b505f92019182525091905056fe61012060405234801562000011575f80fd5b50604051620011b2380380620011b28339810160408190526200003491620002dc565b6001600160a01b038089166080528a908a908a908a908a908a908a90879081166200007857604051631e4fbdf760e01b81525f600482015260240160405180910390fd5b620000838162000250565b506001600160a01b038716620000ac5760405163d92e233d60e01b815260040160405180910390fd5b6001600160a01b038616620000d45760405163d92e233d60e01b815260040160405180910390fd5b6001600160a01b038516620000fc5760405163d92e233d60e01b815260040160405180910390fd5b600180546001600160a01b0319166001600160a01b038981169190911782556002805488831660a0529189166001600160e01b031990921691909117600160a01b6001600160401b0388160217905560038490556004805463ffffffff851665ffffffffffff199091161764010000000061ffff8516021790556007805460ff191682800217905550600196506200019695505050505050565b836001811115620001ab57620001ab620003aa565b148015620001c057506001600160a01b038216155b15620001df5760405163b4fa3fb360e01b815260040160405180910390fd5b805f03620002005760405163b4fa3fb360e01b815260040160405180910390fd5b826001811115620002155762000215620003aa565b60c08160018111156200022c576200022c620003aa565b9052506001600160a01b0390911660e0526101005250620003be9650505050505050565b5f80546001600160a01b038381166001600160a01b0319831681178455604051919092169283917f8be0079c531659141344cd1fd0a4f28419497f9722a3daafe3b4186f6b6457e09190a35050565b80516001600160a01b0381168114620002b6575f80fd5b919050565b805161ffff81168114620002b6575f80fd5b805160028110620002b6575f80fd5b5f805f805f805f805f806101408b8d031215620002f7575f80fd5b620003028b6200029f565b99506200031260208c016200029f565b98506200032260408c016200029f565b60608c01519098506001600160401b03811681146200033f575f80fd5b60808c015160a08d0151919850965063ffffffff8116811462000360575f80fd5b94506200037060c08c01620002bb565b93506200038060e08c01620002cd565b9250620003916101008c016200029f565b91506101208b015190509295989b9194979a5092959850565b634e487b7160e01b5f52602160045260245ffd5b60805160a05160c05160e05161010051610d856200042d5f395f81816101a1015281816104b2015281816104e4015261071f01525f81816102eb015261048e01525f81816103c90152818161043301526106cf01525f61024801525f818161054201526105840152610d855ff3fe608060405260043610610110575f3560e01c80636939864b1161009d578063c45a015511610062578063c45a01551461035e578063df15c37e1461037d578063e97dcb6214610391578063f2fde38b14610399578063f5361219146103b8575f80fd5b80636939864b146102a0578063715018a6146102c657806382bfefc8146102da5780638da5cb5b1461030d578063b0fb162f14610329575f80fd5b80631fe543e3116100e35780631fe543e3146101e757806324f74697146102065780633b2bcbf1146102375780635aa68ac01461026a57806361728f391461028b575f80fd5b806302d05d3f1461011457806309c1ba2e146101505780631a95f15f146101905780631f27e315146101d1575b5f80fd5b34801561011f575f80fd5b50600154610133906001600160a01b031681565b6040516001600160a01b0390911681526020015b60405180910390f35b34801561015b575f80fd5b5060025461017790600160a01b900467ffffffffffffffff1681565b60405167ffffffffffffffff9091168152602001610147565b34801561019b575f80fd5b506101c37f000000000000000000000000000000000000000000000000000000000000000081565b604051908152602001610147565b3480156101dc575f80fd5b506101e56103f8565b005b3480156101f2575f80fd5b506101e5610201366004610b59565b610537565b348015610211575f80fd5b506004546102229063ffffffff1681565b60405163ffffffff9091168152602001610147565b348015610242575f80fd5b506101337f000000000000000000000000000000000000000000000000000000000000000081565b348015610275575f80fd5b5061027e6105c4565b6040516101479190610c1e565b348015610296575f80fd5b506101c360035481565b3480156102ab575f80fd5b506007546102b99060ff1681565b6040516101479190610c7e565b3480156102d1575f80fd5b506101e5610624565b3480156102e5575f80fd5b506101337f000000000000000000000000000000000000000000000000000000000000000081565b348015610318575f80fd5b505f546001600160a01b0316610133565b348015610334575f80fd5b5060045461034b90640100000000900461ffff1681565b60405161ffff9091168152602001610147565b348015610369575f80fd5b50600254610133906001600160a01b031681565b348015610388575f80fd5b5061027e610637565b6101e5610695565b3480156103a4575f80fd5b506101e56103b3366004610c98565b610798565b3480156103c3575f80fd5b506103eb7f000000000000000000000000000000000000000000000000000000000000000081565b6040516101479190610cc5565b600160075460ff16600581111561041157610411610c6a565b1461042f5760405163baf3f0f760e01b815260040160405180910390fd5b60017f0000000000000000000000000000000000000000000000000000000000000000600181111561046357610463610c6a565b146104815760405163b4fa3fb360e01b815260040160405180910390fd5b6104d66001600160a01b037f00000000000000000000000000000000000000000000000000000000000000001633307f00000000000000000000000000000000000000000000000000000000000000006107d5565b6104df33610811565b6040517f0000000000000000000000000000000000000000000000000000000000000000815233907fdb4b459b9af0810582f21ec0ec043ee9c3f91ea26a3d3a675dea0e9e5e099f05906020015b60405180910390a2565b336001600160a01b037f000000000000000000000000000000000000000000000000000000000000000016146105b65760405163073e64fd60e21b81523360048201526001600160a01b037f00000000000000000000000000000000000000000000000000000000000000001660248201526044015b60405180910390fd5b6105c08282610888565b5050565b6060600580548060200260200160405190810160405280929190818152602001828054801561061a57602002820191905f5260205f20905b81546001600160a01b031681526001909101906020018083116105fc575b5050505050905090565b61062c610930565b6106355f61095c565b565b6060600680548060200260200160405190810160405280929190818152602001828054801561061a57602002820191905f5260205f209081546001600160a01b031681526001909101906020018083116105fc575050505050905090565b600160075460ff1660058111156106ae576106ae610c6a565b146106cc5760405163baf3f0f760e01b815260040160405180910390fd5b5f7f000000000000000000000000000000000000000000000000000000000000000060018111156106ff576106ff610c6a565b1461071d5760405163b4fa3fb360e01b815260040160405180910390fd5b7f0000000000000000000000000000000000000000000000000000000000000000341461075d5760405163b4fa3fb360e01b815260040160405180910390fd5b61076633610811565b60405134815233907fdb4b459b9af0810582f21ec0ec043ee9c3f91ea26a3d3a675dea0e9e5e099f059060200161052d565b6107a0610930565b6001600160a01b0381166107c957604051631e4fbdf760e01b81525f60048201526024016105ad565b6107d28161095c565b50565b6107e38484848460016109ab565b61080b57604051635274afe760e01b81526001600160a01b03851660048201526024016105ad565b50505050565b600580546001810182555f9182527f036b6384b5eca791c62761152d0c79bb0604c104a5fb6f4eb0703f3154bb3db00180546001600160a01b0319166001600160a01b03841690811790915560405190917f6cd71e167cab47cb2ccb763aada102691b585b848adb6395f1da4ac187b9214a91a250565b600360075460ff1660058111156108a1576108a1610c6a565b146108c257604051600162f485e960e01b0319815260040160405180910390fd5b6108e66001825f815181106108d9576108d9610cd9565b6020026020010151610a18565b6007805460ff191660041790556040517f01e26fd9468170c075e6afc90d001d0e84ba9f84a6816461d03d2a4e7f6aa7de9061092490600690610ced565b60405180910390a15050565b5f546001600160a01b031633146106355760405163118cdaa760e01b81523360048201526024016105ad565b5f80546001600160a01b038381166001600160a01b0319831681178455604051919092169283917f8be0079c531659141344cd1fd0a4f28419497f9722a3daafe3b4186f6b6457e09190a35050565b6040516323b872dd60e01b5f8181526001600160a01b038781166004528616602452604485905291602083606481808c5af1925060015f51148316610a075783831516156109fb573d5f823e3d81fd5b5f883b113d1516831692505b604052505f60605295945050505050565b600554821115610a6a5760405162461bcd60e51b815260206004820152601760248201527f4e6f7420656e6f756768207061727469636970616e747300000000000000000060448201526064016105ad565b610a7560065f610b17565b5f5b82811015610b1257600554604080516020808201869052818301859052825180830384018152606090920190925280519101205f91610ab591610d30565b9050600660058281548110610acc57610acc610cd9565b5f918252602080832090910154835460018181018655948452919092200180546001600160a01b0319166001600160a01b03909216919091179055919091019050610a77565b505050565b5080545f8255905f5260205f20908101906107d291905b80821115610b41575f8155600101610b2e565b5090565b634e487b7160e01b5f52604160045260245ffd5b5f8060408385031215610b6a575f80fd5b8235915060208084013567ffffffffffffffff80821115610b89575f80fd5b818601915086601f830112610b9c575f80fd5b813581811115610bae57610bae610b45565b8060051b604051601f19603f83011681018181108582111715610bd357610bd3610b45565b604052918252848201925083810185019189831115610bf0575f80fd5b938501935b82851015610c0e57843584529385019392850192610bf5565b8096505050505050509250929050565b602080825282518282018190525f9190848201906040850190845b81811015610c5e5783516001600160a01b031683529284019291840191600101610c39565b50909695505050505050565b634e487b7160e01b5f52602160045260245ffd5b6020810160068310610c9257610c92610c6a565b91905290565b5f60208284031215610ca8575f80fd5b81356001600160a01b0381168114610cbe575f80fd5b9392505050565b6020810160028310610c9257610c92610c6a565b634e487b7160e01b5f52603260045260245ffd5b602080825282548282018190525f8481528281209092916040850190845b81811015610c5e5783546001600160a01b031683526001938401939285019201610d0b565b5f82610d4a57634e487b7160e01b5f52601260045260245ffd5b50069056fea26469706673582212208adab978b3a93f11984851db11af2c63bb182d0977839627edc02127eedc611764736f6c63430008180033a2646970667358221220d540a263434437f4c9609e66208dcdb1d8d3d800093dfe620fd095096011f05064736f6c63430008180033","linkReferences":{}},"methodIdentifiers":{"COORDINATOR()":"3b2bcbf1","allLotteries(uint256)":"43531c61","callbackGasLimit()":"24f74697","createLotteryOpen(uint8,address,uint256)":"1bbb43fe","getAllLotteries()":"a5773a47","isLottery(address)":"be345453","keyHash()":"61728f39","minConfirmations()":"e7c4393e","owner()":"8da5cb5b","rawFulfillRandomWords(uint256,uint256[])":"1fe543e3","renounceOwnership()":"715018a6","requestRandomness(address,uint32)":"4b75abbb","requestToLottery(uint256)":"15c6e123","subscriptionId()":"09c1ba2e","transferOwnership(address)":"f2fde38b"},"id":25}